:020000021000EC
:100000000059002079520100795303004D5201003C
:100010004D5201004D5201004D5201000000000000
:10002000000000000000000000000000754A010010
:100030004D52010000000000214A01004D52010014
:10004000254B010049A80200254B0100254B01006A
:10005000254B0100254B0100254B0100254B0100DC
:10006000254B0100254B0100254B0100254B0100CC
:10007000254B0100254B0100254B0100254B0100BC
:10008000254B0100254B0100254B0100254B0100AC
:10009000254B0100254B0100254B0100254B01009C
:1000A000254B0100254B0100254B0100254B01008C
:1000B000254B0100254B0100254B0100254B01007C
:1000C000254B0100254B0100254B0100254B01006C
:1000D000254B0100254B0100254B0100254B01005C
:1000E000254B0100254B0100254B0100254B01004C
:1000F000254B0100254B0100254B0100254B01003C
:100100007BB972B90029BEBF00204FF0004106E064
:1001100008BF00281CBF6FF000414FF0FF3000F017
:1001200057B8ADF1080C6DE904CE002909DB002BAE
:100130001ADB00F04FF8DDF804E0DDE9022304B03B
:100140007047404261EB4101002B1BDB00F042F89D
:10015000DDF804E0DDE9022304B0404261EB410137
:10016000524263EB43037047524263EB430300F098
:1001700031F8DDF804E0DDE9022304B0404261EB30
:1001800041017047524263EB430300F023F8DDF86E
:1001900004E0DDE9022304B0524263EB43037047FD
:1001A00053B94AB9002908BF00281CBF4FF0FF31DE
:1001B0004FF0FF3000F00CB8ADF1080C6DE904CE43
:1001C00000F008F8DDF804E0DDE9022304B0704730
:1001D000704700BF2DE9F04786468C460846089ECA
:1001E000154674461946002B40F0C2808542B2FA8B
:1001F00082F245D94AB1C2F1200300FA02FC2EFA7C
:1002000003F3954043EA0C0C94404FEA154EA8B214
:10021000BCFBFEF8230C0EFB18CC08FB00F943EAEC
:100220000C43994528D9EB1808F1FF3704D29945BA
:1002300002D9A8F102072B44A3EB0903A4B2B3FB34
:10024000FEFC0EFB1C330CFB00F044EA0344A0420E
:1002500014D92C190CF1FF3304D2A04202D9ACF10D
:1002600002032C44241A43EA07401EB1D440002361
:1002700034607360BDE8F0874746DDE76346F1E729
:1002800092BB431B01214FEA154EAFB2B3FBFEFCFC
:10029000200C0EFB1C330CFB07F840EA0343984587
:1002A00062D9EB180CF1FF3004D2984502D9ACF1B9
:1002B00002002B44A3EB0803A4B2B3FBFEFC0EFB2D
:1002C0001C330CFB07F744EA0344A7424ED92C1910
:1002D0000CF1FF3304D2A74202D9ACF102032C4443
:1002E000E41B43EA0040C0E7C2F1200320FA03F117
:1002F000954090402EFA03F303434FEA154EAFB2F8
:10030000B1FBFEFC0EFB1C10190C0CFB07F841EABC
:100310000041884504FA02F422D969180CF1FF3033
:1003200004D2884502D9ACF102002944A1EB0801AE
:100330009BB2B1FBFEFC0EFB1C110CFB07F743EA62
:1003400001439F420ED9EB180CF1FF3104D29F42BA
:1003500002D9ACF102012B44DB1B41EA004192E7D8
:100360006046E3E76146F7E76046A3E76346B7E721
:10037000834206D916B9002108467BE7C6E900E0AA
:10038000F9E7B3FA83F78FB9834201D3724508D8EE
:10039000BEEB020460EB030301209C461EB9002162
:1003A00068E73846FAE7C6E9004CF8E7C7F1200CE1
:1003B000BB4022FA0CF41C432EFA0CF120FA0CF389
:1003C000B84001434FEA14490EFA07F5B3FBF9F8B8
:1003D0001FFA84FE09FB18300B0C08FB0EFA43EAE7
:1003E00000439A4502FA07F240D9E31808F1FF30BA
:1003F00004D29A4502D9A8F102002344A3EB0A03D0
:1004000089B2B3FBF9F809FB183308FB0EFE41EA89
:1004100003418E452CD9611808F1FF3304D28E4573
:1004200002D9A8F10203214443EA0040A0FB02984C
:10043000A1EB0E014145CE46434602D306D14D45C0
:1004400004D2B9EB020E68EB04030138002EA6D0EB
:10045000B5EB0E0261EB030101FA0CFC22FA07F383
:100460004CEA0303F940C6E9003198E74046C5E786
:100470004346D9E7000000002DE9F043454D83B025
:10048000D5F85431996811F0010100AF21D13A1D1E
:1004900040F6034006F00EFB0446002875D178684C
:1004A000C3681B789BB9BFF35B8FD5F8CC30BFF323
:1004B0005B8F05F1CC0203F00903BFF35B8F52E8B9
:1004C000001F42E80034002CF9D1BFF35B8F1DF010
:1004D000C7F93A1D002141F2030006F0EBFA044689
:1004E000002852D17E682C48F1680822013125F09D
:1004F00022F830461DF0B4F921463A1D41F20100C0
:1005000006F0D8FA044600283FD17868C3685A78C4
:1005100085F868205A88A5F86A201A7985F8692034
:10052000B3F80720A5F86C20B3F80530A5F86E30B5
:100530001DF096F921463A1D41F2020006F0BAFA82
:10054000044610BB7E681548F1684022013124F052
:10055000F2FF124825F0ACF830461DF081F995F80D
:1005600074305A0622D46C4688B06A460C4B5361EC
:100570000C4B9361032342F8103F0B484FF4C251D8
:1005800025F06AF9A5466FF0120420460C37BD46E7
:10059000BDE8F083000000207000002078000020FB
:1005A0004EC9030056CE0300C095030021463A1DF4
:1005B00042F2030006F07EFA04460028E5D17E6888
:1005C000B948F1680822013124F0B5FF30461DF02A
:1005D00047F921463A1D42F2020006F06BFA044642
:1005E0000028D2D17C68E368B3F80120A5F8FC208C
:1005F00091B221B1DA78AD48114628F062F920466F
:100600001DF02EF995F8746016F0200618D102211D
:1006100040F66D4006F0F2F80446002800F0E38052
:1006200002210C3027F024FA012303704670214682
:10063000324640F66D4006F03DFA04460028A4D14B
:1006400095F894301B0712D53A1D002142F21C0088
:1006500006F030FA0446002897D17868C368D3F8CA
:100660000120D3F80530C5E936231DF0F9F895F8D7
:10067000D0309E0621D5B91C384606F09BFA0446B8
:10068000002882D1042142F2240006F0B7F8064681
:10069000002800F0A88004210C3027F0E9F93B88FD
:1006A00003807B8843802246314642F2240006F0D4
:1006B00001FA044600287FF468AF95F8D0305C0654
:1006C0002AD5022142F22E0006F098F804460028AE
:1006D00000F0898002210C3027F0CAF9B5F8983172
:1006E00003802146002242F22E0006F0E3F9044680
:1006F00000287FF44AAF01463A1D42F22A0006F074
:10070000D9F9044600287FF440AF7868C3685B7865
:1007100085F818311DF0A4F8082142F2010006F016
:100720006DF8044600285ED008210C3027F0A0F9AF
:1007300095F8D01011F0400F024640F2022308BF96
:10074000032388074CBF43F02C0043F00C008B06BA
:1007500095F8D13048BF40F0400013F0090F95F8EC
:100760009A3018BF40F4006003F00603CE0748BF7C
:1007700040F01000062B08BF40F4C070002125F0A7
:100780007AF82146002242F2010006F093F904466D
:1007900000287FF4FAAE95F87430B5F8FC1098068E
:1007A00024D4C9B93A1D41F2050006F083F9044684
:1007B00000287FF4EAAEB5F8FC307C684BB9E368FA
:1007C000B3F80120A5F8FC209A883848114628F093
:1007D00078F820461DF044F8082140F6014006F064
:1007E0000DF80446B8B96FF06804CEE60029F3D1DD
:1007F0006C4688B06A462E4B53612E4B936103239F
:1008000042F8103F2C484FF4C25125F025F8A54678
:100810006FF00404B9E608210C3027F029F995F8A7
:10082000D030D907024636D424484FF0005125F085
:1008300022F82146002240F6014006F03BF904462A
:1008400000287FF4A2AE01463A1D4FF6014006F0A3
:1008500031F91B4C002837D06D4688B06A46194BD9
:100860001548C2E90534032342F8103F4FF4C45140
:1008700024F0F2FFAD4607F07DFD044600287FF42A
:1008800084AE09F077F9044600287FF47EAE06F0C6
:10089000BBFE044679E602A1D1E90001C7E700BF2B
:1008A0009088000200800020D0000020000100207D
:1008B00076C903005ECE0300C095030010880002D5
:1008C00031CE03009DC903007B68DE68B6F80130B5
:1008D000032B96BF4F4A504952F82310E8468AB07E
:1008E0006A464E48C2E9071340F2013393844C4BE9
:1008F000C2E905044FF4335142F8103F494824F04F
:10090000ABFFB6F80120B6F80330022AC54657D12E
:10091000032B55D8444A52F82310E8468AB06A4659
:100920004248C2E9071340F2013393843C4BC2E9C9
:1009300005044FF4335142F8103F3A4824F08CFF3D
:10094000737996F806E0B6F807C0D6F80900032BCD
:10095000C54696BF364A304952F823106E468EB0CF
:100960006A46DFF8D080D062C2E9071340F2013353
:100970001386314B2B48C2E90584C2E909EC44F2E5
:10098000C04142F8103F24F067FFB54678681CF07C
:1009900067FF3A1D00214FF6024006F08BF88046B3
:1009A00080B188B06A46254B1E48C2E9053403234E
:1009B00042F8103F4FF4C45124F04EFFB5465AE7B9
:1009C0001549AAE7D7F804901D48D9F80C1002225F
:1009D000013124F0B0FD48461CF042FF95F8B930D3
:1009E0005B077FF548AF3A1D41464FF6034006F0DE
:1009F00061F818B188B06A46124BD5E77C68124896
:100A0000E1680122114424F096FD20461CF028FFE5
:100A100031E700BF949B0300ABC30300C5C90300CB
:100A200005000001C0950300849B0300E2C9030098
:100A3000749B0300FEC90300080000012FCA0300D5
:100A4000B90000205CCA0300B800002000000000CC
:100A50002DE9F843D0E90C35D0F82C805C193034FE
:100A6000A0450F46164619D81D4DA3FB05011AA334
:100A7000D3E90023FFF794FB0346A4EB0800A0FB97
:100A8000050123F07F4414A3D3E90023FFF788FB7B
:100A900020F07F403C603060BDE8F883DFF8409094
:100AA0000DA3D3E90023A8FB0901FFF779FB044656
:100AB00005F1300008A3D3E90023A0FB0901FFF7EB
:100AC0006FFB24F07F4420F07F403C603060BDE845
:100AD000F88300BFAFF300808D49FD1A07000000C6
:100AE00000CA9A3B00000000002800F03F812DE979
:100AF000F04FCB4C94F86A2012F001058DB040F015
:100B0000718194F82500FF2300F0030084F826305B
:100B100019F030FB94F86A00420727D494F8292092
:100B200094F8353004EB820204EB8303D66AD3F8E1
:100B3000388086B1BA48314613F06AF933785B06DB
:100B400005D506210EF066FC002800F04D81B44862
:100B5000414613F05DF9337813F00E0F40F09E809C
:100B6000236A93B10C200DB0BDE8F08F2A4604F142
:100B70006B01C0F3C00019F071FCFF2884F8260057
:100B8000CCD0284619F010FBC8E711F0ADFF814624
:100B9000002800F0378111F0B3FF8246002800F0F2
:100BA0002E8113F01DFC0546002800F02D81D0F8A1
:100BB00088004FF6FF732B8505F11C0B002800F011
:100BC000198105F17C0205F178010EF02FFCB5F8D2
:100BD000763023F4EF6323F0070343F4887343F084
:100BE0000103A5F8763095F8393003F03F0363F040
:100BF0007F0385F8393095F88E3023F0070385F8A8
:100C00008E3095F83C3023F00703002785F83C3000
:100C10004FF4C023C5F880312846C5E91277C5F8DE
:100C20008870A5F88C706F86C5F82E7085F83B70BB
:100C30002F65A5F88671A5F87C7115F0FFFD85F884
:100C40004871C5F84C9113F055FE95F88C3160F35E
:100C5000020385F88C3113F053FE95F88C3160F364
:100C6000C50385F88C3195F8783167F3410385F831
:100C700078310121284614F087FB05F1D40015F0E6
:100C8000C7FBC4E9189AC4F820B0C5E905772F70EE
:100C9000ED611AF033FB002840F0A88094F824306E
:100CA0000121C3F342030DF12B008DF82B300EF020
:100CB00047FD024600285BD098F80110304612F03C
:100CC00073FE5849B4F8687000253123A360C4E965
:100CD000055551A3D3E9002325706560E560A0FBAD
:100CE0000101FFF75DFA20610FF084FD00F10908B2
:100CF0003FB9357805F00F05A5F10105B5FA85F581
:100D00006D0994F82400236965F3000010F00105D3
:100D100084F8240033D00020434A444F0493022532
:100D20000BAE019305920321CDE9020008960694CB
:100D30004346009007972A460B950FF04BFC31462F
:100D400011F098FFA0B93A4905914AF2D8330093BF
:100D5000CDE90300CDE901000797089606944346C4
:100D6000012203210B950FF035FC2EE012F06CBD33
:100D7000236A002B3FF4F6AE12F024FDF2E62D4A72
:100D80002D48049303F247130694029591211360B2
:100D9000A7FB000301FB0731244B0793224B05936C
:100DA0004FF6FF730992022703930BAE1AA3D3E900
:100DB00000230B970896FFF7F3F94346CDE900505F
:100DC0003A46284603210FF0AFFB314611F052FF9F
:100DD0000028CDD194F86A300120034384F86A30AA
:100DE00019F0AAF90020BEE61220BCE612F0EAFCD7
:100DF0000320B8E605F18000C5F88800E1E6484622
:100E000011F078FE0720AEE6504611F07FFE48460E
:100E100011F070FEF6E700BF8D49FD1A07000000D3
:100E2000EC25002000CA9A3B253A02000922020064
:100E300059350200E0250020002AE7840000000068
:100E400070B590F824308AB0C3F342030D460446CF
:100E500001210DF1230016468DF823300EF070FCB1
:100E600071780246284612F09FFD1D491AA3D3E966
:100E70000023A0FB0101FFF793F92369984205467F
:100E800021D21B1A00220192164A0293164BA21A73
:100E9000A3FB02320221920900230A4409AE099100
:100EA00012490591CDE903330321D2B2069600938E
:100EB00018460FF001FC314611F0DCFE38B925610F
:100EC00000200AB070BDFBD9C21A0023DBE70C205A
:100ED0000AB070BDAFF300808D49FD1A0700000015
:100EE00000CA9A3BEC25002009CB3D8D0922020067
:100EF0002DE9F04F05468BB08B46012002219A4622
:100F000014461CF02FFA00220221814601200EF027
:100F1000DDFA39494FF4CC7228460EF067FAC61C48
:100F2000F6B2364B00953246012100200FF0DCFB73
:100F300010F0FD0F0CD0324A3249334841F61A7393
:100F400022F06AFA404080F311884FF0030002DF7C
:100F50002E4BA4FB0348204625A3D3E9002341469A
:100F6000FFF71EF9089506952B690493284B20F08E
:100F70007F47A7FB0331E01A264B07934FF0070288
:100F8000254B059302FB07114FF6FE7368EB010139
:100F900003934FF47A720023FFF702F9CDF800B003
:100FA000CDE9017053463246012100200FF012FBBB
:100FB00010F0FD0F0CD0124A1249134841F62F735E
:100FC00022F02AFA404080F311884FF0030002DF3C
:100FD000B9F1000F02D10BB0BDE8F08F0122022160
:100FE00010460BB0BDE8F04F0EF070BAAFF30080C2
:100FF0008D49FD1A07000000C01600208943020039
:1010000050A6030014A70300749F030000CA9A3B74
:101010008D49FD1A31430200A9950200000000002D
:101020002DE9F04FB0F81091468EB0F82EB0D0F800
:101030000C7187B04E44BDF84C50BDF84080019112
:101040005E44B6B2CDE90423721B92B2836800926B
:10105000BDF844200292002BBDF8482003920446BC
:1010600009DAC168426823F0004391422CBF7F181F
:10107000BF188360FF1A009A638D13FB02F39BB2C3
:10108000B3FBF8F218FB02F080B283421FFA82FA37
:101090005AD2C01A40F2E2425B4902FB00F0A0FBC8
:1010A000010157A3D3E90023FFF77AF820F07F402E
:1010B0000744D94494F839304D44AD1B554440F2AF
:1010C000E246DB09E58506FB08F54ED14F4A50495B
:1010D000504841F6A57322F09FF9404080F31188F3
:1010E0004FF0030002DF0026A946029BA385039B65
:1010F000A4F8843129462046A4F82A8015F014FC6F
:10110000454BA18D2B44881DB3FBF5F39AB2904259
:10111000A4F87E2102D2521A063A92B2019BA4F898
:101120007A2113B10023A4F886313B464A46314662
:101130002046FFF7DDFE94F8783143F0010384F890
:10114000783107B0BDE8F08F08FB12312E4840F22D
:10115000E24389B203FB01F1A1FB000128A3D3E91B
:101160000023FFF71DF83F1AA3E7226C0099A36C38
:10117000DFF894B002FB1133A3641AF00FF9814633
:1011800094F86C01C0F342001AF00AF9049B814400
:1011900006FB03F305FB09F9236509F574291F4BC9
:1011A00009F23F29A3FB09394FEA994303FB0AF0EF
:1011B0002364A5EB0309A36C6A080344963A93429F
:1011C00028BF1346C4E911230023C4F87431A0FBDF
:1011D0000B010BA3D3E90023FEF7E2FF104B059AA6
:1011E0003F1AA3FB0230800A06FB00F004A3D3E9F8
:1011F0000023A0FB0B01FEF7D3FF064675E700BFF7
:101200008D49FD1A0700000000CA9A3B50A6030052
:1012100004A00300749F03007FC3C90183DE1B4346
:101220005917B7D1000000002DE9F04F0B6817687F
:10123000D3F80090037F95B00E46C3F3801300F1FE
:101240001E010446154612A806228DF83F3024F0F0
:1012500072F996F81180B8F1FF0F0DF1400B5AD0DA
:101260005A460DF13F01404618F092FC9DF83F3080
:1012700002338DF83F302146032251F82E3B0A936A
:1012800005F1080005F1040A24F055F905F11803E9
:10129000042204F12A0150460B9324F04CF90B9BD5
:1012A000052204F13A01184624F045F90B9B05216B
:1012B00018460EF045FA6B7F00F03F0060F305031F
:1012C0006B7794F83F30C3F30402AA77A28EEA81C9
:1012D000012803F01F0392B205D91B3303F01F034B
:1012E0000B2B00D8EAB90022C9F8142095F8203059
:1012F0000A9862F3000385F82030E568012621464C
:10130000267111F009FC28682E71294611F00EFC97
:1013100015B0BDE8F08F062212A9584624F00BF94B
:10132000A9E7336800215960E38EEA892B8240F2F5
:10133000E24303FB02F20B92638E0D93384615F0E5
:1013400007FB94F83F2097F86C11520962F34301B0
:1013500087F86C111AF022F80C9097F86C01C0F322
:1013600042001AF01DF80C9A0B99104401FB00F092
:10137000B94A00F5742000F23F20A2FB00204A0881
:10138000800C963A6862AA6294F8312040F2E243F7
:1013900002FB03F3AB63238FA7F88431384615F0C3
:1013A000C3FA0B99AD4BAE4AC7F888210B44B3FB87
:1013B000F1F39AB2A7F87E21298A881D824204DDC2
:1013C000C1F57F41FA310A4492B2A7F87A21514619
:1013D000042207F5B87024F0AEF8234613F81C2F4A
:1013E000C2F340120C92DA0700F10E814FF48073C1
:1013F000A38399F8260019F04BF90146062204F15F
:101400002B00002900F0E68004F1240124F093F879
:10141000B8F1FF0F04F1250000F0DF8012A90622C9
:1014200024F089F89DF83F30A3775946062204F14D
:101430001F0024F080F8EB8963862B8AA386B7F817
:101440008431E38697F86C31C3F3420384F8383073
:10145000384612F0D1FFA881E08021460A987468CE
:1014600011F05AFBAB89E3801C2323710C9BD4F849
:101470000080002B40F0B6800C9B2377214640462D
:1014800011F054FB95F85B00B5F85080B5F8524068
:10149000012100F0070019F091FD444404F2A91461
:1014A000DFF8C0818246312320180024A0FB080108
:1014B000BB607C6066A3D3E90023FC60FEF770FE8E
:1014C00020F07F4038610B9B6D6A0D995D1BF368BE
:1014D00040F2E24202FB013303F2B241A1EB0A0AFD
:1014E0002246022101200DF0F1FF484612F04CFC8B
:1014F0000246AAFB0801924655A3D3E90023FEF752
:101500004FFECDF80490B3685749009120F07F4812
:101510000AF102023A3BD2B22046434401210FF0C5
:1015200025F901287ED099F82430DB0764D43846A9
:1015300012F062FF4B4BA5FB03A9044644A3D3E979
:10154000002350464946FEF72BFE484BB668484AF2
:10155000079220F07F45A5FB0331BAEB0300454B12
:1015600005934FF4EE73069708933B694FF0000B19
:10157000CDE903B34FF0070303FB051169EB01014C
:101580004FF47A720023FEF70BFE03343A3EE4B2C6
:10159000CDE90150CDF8008033462246012158465E
:1015A0000FF018F810F0FD0F0CD0334A33493448CF
:1015B00040F2DD1321F030FF404080F311884FF0FE
:1015C000030002DF0122022110460DF07FFF15B05B
:1015D000BDE8F08F23F0BAFF1AE70622002123F0BE
:1015E000B5FF1FE76B7F43F040036B77504618F061
:1015F000DDF80123E88340E7002301220093184629
:1016000011460FF071F892E71B4A1E491C484FF42F
:10161000817321F001FF404080F311884FF00300F7
:1016200002DFE3E611F066FB81453FF47CAF124A2E
:101630001549134840F2A62321F0EEFE404080F306
:1016400011884FF0030002DF6DE700BFAFF30080A9
:101650008D49FD1A0700000083DE1B437FC3C901CB
:10166000404B4C0000CA9A3B6D9502008D49FD1A13
:101670003D950200A995020058AB030014A7030092
:10168000749F0300B4A10300B4AB0300000000008A
:1016900010B514460FF0AEF821460FF0ADF8034632
:1016A00010F4000003D1DC1C092C02D810BD00206E
:1016B00010BD114A1149124840F2D91321F0ACFE75
:1016C00010480721A4FB000301FB043108A3D3E960
:1016D0000023FEF765FD0C4902460C4821F09CFEF4
:1016E000404080F311884FF0030002DF012010BD5D
:1016F00000CA9A3B0000000014AE030004A00300DF
:10170000749F03008D49FD1A98AF030038AF0300A2
:101710002DE9F04F8FB0DFF8D8800B900DF1370135
:101720000DF1360011F080FA324F9DF836A09DF889
:1017300037B00FF05FF8D8F800400A90A4FB0754C8
:1017400029A3D3E90023002621462846FEF728FDD9
:101750000B9B0693CDE90766274B05938146D8F886
:10176000040021A3D3E90023A0FB0701FEF718FD25
:10177000224B29F07F47A7FB033120F07F4007224F
:10178000CDE9036002FB0711E81A64EB01014FF495
:101790007A720023FEF704FD0A9B0096CDE90170E2
:1017A0005A46032150460EF015FF10F0FD0416D1E5
:1017B000134A1448002320F0B3F968B19DF837208C
:1017C0009DF836000094234603210EF08DFF6FF044
:1017D00073000FB0BDE8F08FD8F80C00F9E76FF098
:1017E0008B00F6E7AFF300808D49FD1A070000007B
:1017F0003431002000CA9A3BA1F202008D49FD1A43
:10180000447B0B001C31002038B50F4D04460EF010
:10181000F1FFA9680EF0F0FF6968B0FBF4F404442E
:101820000A4807A3D3E90023A1FB0001FEF7B8FC97
:1018300020F07F40844294BF0020012038BD00BFCB
:101840008D49FD1A070000003431002000CA9A3B80
:10185000014821F08EBA00BFE8B40300014821F02E
:1018600088BA00BF0AB5030011B1034821F081BA5C
:10187000024821F07EBA00BF28B5030048B5030036
:1018800070B503788AB004460E4607AD032B20D806
:10189000DFE803F002191B1D1149284623F0EDFD76
:1018A000059563780493A3780393E37802932379EF
:1018B000019363790093A3790A4A1E21304621F0EF
:1018C00065FA0AB070BD0849E7E70849E5E7084945
:1018D000E3E7084A0A21284621F058FAE0E700BF6A
:1018E00053B5030075B503005AB5030061B5030095
:1018F0006BB503005EE3030000B589B024F0CAFBBA
:101900006946FFF7BDFF0348694621F032FA09B086
:101910005DF804FB98B5030010B588B00C4624F0C0
:10192000B9FB6946FFF7ACFF03482246694621F040
:1019300020FA08B010BD00BFAFB503002DE9F04795
:101940008CB05B4C204626F019FE2168054650BB42
:10195000584821F00EFA2C46DFF85C81404626F00C
:101960000DFE002800F0A180D8F81020D8F808104B
:10197000136843F0807313600B68504A1821404687
:1019800098470028C0F29180002C00F08E80002043
:1019900005F06EFE074650B1014649480CB0BDE85F
:1019A000F04721F0E6B9474821F0E3F9D4E7464E85
:1019B000464821F0DEF922F0D2FA0FCE06AD0FC56F
:1019C00033682B60424900973B46022206A806F086
:1019D0002BFF0146002864D03E4821F0CAF93E485A
:1019E000DFF8D4900AF0ACFA3C4808F0A9F8D8F82F
:1019F00008A04FF08071DAF8143048469847A36881
:101A00003921DB6820469847A36802AA1B690D218B
:101A100020469847A368324E1B69324F324D04AAC4
:101A20000E212046984704A90122304623F083FD69
:101A300002A90122384623F07EFD012205A9B01833
:101A400023F079FD012203A9B81823F074FD1822B0
:101A50000DEB0200002123F079FDCDE9075706A91F
:101A600002270020ADF824700AF0F8FE18220DEBD2
:101A70000200002123F06AFD143D06A90020CDE9F3
:101A80000756ADF824700AF0E9FE4FF08071DAF8DD
:101A900014304846984700214FF4203020F022FDB2
:101AA000A5E7124821F065F999E70CB0BDE8F08789
:101AB000D0920300C5B50300F891030001000600B1
:101AC00041B6030019B603002097030061B6030076
:101AD0006098030078B6030030020020180200204E
:101AE0009C3200209E320020109803009EB6030016
:101AF0002DE9F04F91B08407009302F004030293A4
:101B0000C2F3C20303F10103DDF8688003920546C6
:101B10000E46059340F0BE81041D30B1072909D857
:101B20006FF01B0011B0BDE8F08F01F00706341D07
:101B3000C6F10806009B4FF00009591E4FF0040A39
:101B40004FF0FF330193CDF810904F46CB465346EC
:101B50000DB1009A22600598002800F3EB809A48A6
:101B6000009A824203D399488242C0F0E380039AEC
:101B7000A4EB050E92074FEA9E0000F106810F2F9D
:101B800000F2B480002D00F0088107F140020DEB57
:101B9000020C019A0CF8200C0CF8102C049801305F
:101BA0000490EAE07A2860D84B280ED847285CD801
:101BB00029282FD8252855D057D820287DD023383C
:101BC000D0F1000B4BEB000B77E0A0F14C0CBCF11B
:101BD0002E0F4AD8DFE80CF0714949494949494973
:101BE000494949494C49494949494949495A494C4E
:101BF0004C5A5A5A714C6E497149184C18494983CC
:101C0000804C49494C49800000204FF0000B4FF0B8
:101C1000040A39E0A0F12A0C5FFA8CFC012202FAD6
:101C20000CFC1CEA0E0F48D11CF062502ED11CEAAD
:101C3000020B42D0013C5444CAF1000C04EA0C04EB
:101C4000002D61D0A3EB050CA444B4453FF668AF6A
:101C5000002868D1042B47D158F8043B2360043492
:101C600004232AE0019A013A01924FF0000B24E08C
:101C700011F8010C6C2834D111F8023C00206C2BB7
:101C80008346C4D14FF0080A5346D3E708F107084A
:101C900028F007080734F8E802AB24F0070435B150
:101CA00006982044B0423FF63BAFC4E900AB08348D
:101CB0004FF0000B4FF0080A534611F8010F0028AF
:101CC00078D0BBF1000F7FF46DAF2528F5D1019BD3
:101CD000013301934FF0010B4FF0040AECE7584633
:101CE00093E700208346A5E7082B02D06FF015008C
:101CF00018E708F1070828F00708F8E80223C4E904
:101D0000002308340823D8E768B9042B02D108F16E
:101D10000408A4E7082BE9D108F1070828F0070810
:101D200008F10808EDE7059A013A059258F8042BE6
:101D300000920DE7039A900720D5A4EB050E4FEA19
:101D40009E004FF0010CBEF5007FCFD20F2FCDD8F3
:101D5000F5B107F140020DEB020EC0B2019A0EF888
:101D6000200C0EF8102CBCF1000F3FF417AF60F000
:101D70007F000EF8200C09F101090137C5F10802B6
:101D8000043406924FF6DA7E97E74FF0000CDAE75C
:101D9000BCF1000F01D00136EFE7029802360028AF
:101DA000EBD10098CDE9063123F085FBDDE9063162
:101DB0000644E2E7631BB3F5806F97D245B9A6F1FD
:101DC0000804E018AEE600BF08910300A0F103008C
:101DD000029A28609B082B709DF81030C2B1EB70FE
:101DE00085F80290B9F1000F05D008A80022C5F1CE
:101DF000010C97420ED1C5F101030DF120084FF0FF
:101E0000000A01930DF1300B574512D1601B89E692
:101E10006B70E5E710F8013B190608D504EB0C0ED2
:101E2000B64503F07F033FF67BAE04F8013B013279
:101E3000DFE7B9F1000F03D098F90020002A17DB83
:101E4000029BD3B11AF80B2004F8012B0022019B4E
:101E500098182044B0423FF663AE98F8000004F8AA
:101E6000010B00990392204623F065FB039A14446A
:101E70000AF1010A08F10108C6E798F8002055F8B0
:101E800022300093029B45F82230009823F013FB88
:101E9000421CDCE76FF00D0044E600BF2DE9F04F77
:101EA00095B000AF0446D7F878B0BB61CBF3C00360
:101EB0007A623B61396251B903784678807800EBE9
:101EC000830020440D46AE421AD8031B3B6294F8AF
:101ED0000290E3787B614E46B9F1000F02D01BF00F
:101EE000010F16D17B6953BB7B6A1BB1BA69396A92
:101EF000204698473D6A28465437BD46BDE8F08FD6
:101F000000F10108404623F0D6FA01304044013583
:101F1000D9E794F800A06368FB617B6A4FEA8A0204
:101F2000FA6004EB8A0A002B40F003813D6AD04638
:101F300009EB0A030026434550D1CA4413E01BF0C5
:101F4000020FD1D094F800A04FEA8A03FB606368C7
:101F5000FB617B6A04EB8A0A002B7AD13D6AB9F1F6
:101F6000000F50D14E461BF0050F0CBF022301237A
:101F70007B627B690AEB43090BF002033B62CA45B3
:101F8000B9D01AF8021B1AF8013C54F82380AE4B62
:101F9000984502D3AD4B98453BD33B69002B45D0C8
:101FA000F86920F031FE002840D0E8468AB06A4641
:101FB000A74B5361A74B9361FB69C2E9073140F21C
:101FC00001339384A44B42F8103FA44800234FF4FC
:101FD000325101F0CFF8023DC546D0E718F8012B89
:101FE0007B6254F8220023F066FAFA6F7B6A0130B4
:101FF0003AB1D7F8802096423EBFFA6F22F8160019
:102000000136054497E71BF004061CBF7E6ACA44EC
:10201000A9E73B6923B1F86920F0F6FD0028C4D197
:102020001BF0010F05D17B6AED1AA8E73B6A002B74
:10203000A5D0404623F03FFAFB6F43B1D7F880307C
:102040009E423FBFFA6F431C22F81630013605440A
:1020500095E7B9F1000F71D01BF0040671D0C846A6
:10206000002607F140004A46514623F064FA7B6996
:102070005B00BB607B69CA440AEB43037B610BF0E6
:1020800002037B607B699A455DD12378FB616378AD
:102090001BF0020F06EB03020CBF4FEA58010021B0
:1020A0001BF0010FD2B240F09D801BF0040F14BF53
:1020B0004046002094F802B094F803A03B6162709F
:1020C000A070E170BA69F9687B6A20469847051EDE
:1020D000FFF611AFFB6923703B6963704146BA6933
:1020E0007B6A84F802B084F803A007F140009847A7
:1020F000B0F10008C0F2A3803B6ABA697869A3EB2B
:102100000901FB68C91ABB68C91A7B6A984700288D
:10211000C0F29780A84408EB00054FF0000B07F1D0
:10212000300AB34560DB0021BA697B6A08469847EC
:10213000E1E607F130004FF0000894E74E46C8464C
:1021400095E7B04693E71AF8021B3F4A1AF8015C7C
:1021500054F82530934202D33C4A93421CD33B6946
:1021600023B1F86920F050FD00288BD17B68F3B9CA
:1021700008F1280207F12800024408F1010302F8DF
:10218000101C07F1500252FA83F308F102085FFABB
:1021900088F803F8105C75E73B692BB1F86920F00B
:1021A00033FD00287FF46EAF1BF0010F09D006F15C
:1021B000280207F12801731C561806F8205CDEB2CD
:1021C00060E71BF0040F3FF45DAF08F1280207F150
:1021D000280108F1010302EB010808F8105C5FFA1E
:1021E00083F84FE7002065E71BF80A3087F82F30A7
:1021F00054F82390FB6FFBB133F81B80BA697B6AFC
:10220000012107F12F00984700281ADB0544B8F197
:10221000000F06D1484623F04EF900F101081FFADD
:1022200088F8BA697B6A414648469847002808DB27
:1022300005440BF1010B74E7D7F87C80DEE74546D7
:1022400059E6054657E600BF08910300A0F10300D8
:10225000C0B6030067B70300050000010096030045
:10226000014B1860704700BF3802002030B587B0BE
:102270000025CDE903010446009503A9054805950D
:1022800000F02EF9DDE904309842B8BF255407B0BC
:1022900030BD00BF492D03002DE9F047058B0446F2
:1022A0002807904611D4022905F0070540F0CD809B
:1022B000204620F047FF78B10138218B042811D83F
:1022C000DFE800F0C3106D85950001290CBF45F0D3
:1022D000100545F02005258388F31188BFF36F8F23
:1022E000BDE8F08701F0070AAA4500F0A6800027A4
:1022F000B9463E46A368002B00F0BD8041F00801BE
:10230000218388F31188BFF36F8FA168002900F043
:10231000BB800D68002900F0B780D1F804803346F7
:1023200052462046C047002D76D02B6829461D46D0
:10233000F0E701F007035A1F012A1BD8002221F001
:102340000701062B276889B2C4E9002209D13B4660
:1023500003E0628B013262831B68002BF9D141F0EC
:1023600002012183204620F0EDFE00287BD041F0C1
:10237000200177E0042B0AD121F0070189B22183E3
:10238000204620F0DFFE10B141F020012183218B97
:1023900001F0070AAA4550D00027B946AAE72369E9
:1023A00021F0070141F00601062DD3F800902183AA
:1023B0002DD1B9F1000F40D041F00801218388F3FD
:1023C0001188BFF36F8F3A492046C84729E021F0B2
:1023D0000701236941F0040189B2042DD3F8049068
:1023E0002183E6D000273E464FF0040A82E721F021
:1023F0000701236941F0050189B2052DD3F8089042
:102400002183D6D000273E464FF0050A72E7002709
:102410003E464FF0060A6DE72B4687E7B9F1000FFD
:10242000D1D14FF02003EFF3118883F31288BFF36B
:102430006F8F238B23F008032383258BEA062ED589
:1024400025F01003238305F007056669218B002E14
:10245000BFF66FAF00232768C4E9003321F00701FE
:1024600041F001012183218B01F0070AAA454FF0B9
:1024700000097FF43FAF002F9BD041F0080121837A
:1024800088F31188BFF36F8F002FC7D03D6839469E
:1024900033465246204620F081FE2F46F4E7AB0635
:1024A0007FF51AAF25F02003238305F00705FFE62B
:1024B000C931030010B5094C0A44914200D110BD46
:1024C00011F8013B584003090001E35CC0B24340EE
:1024D00018091B01205CDBB25840EEE791B70300FE
:1024E0002DE9F04F814695B08B4617461C460025D6
:1024F000387808B9284658E37B1C2528039306D072
:102500005946C8470028C0F250830135FBE1182224
:1025100000210EA823F01AF87B78252B7DD000230C
:10252000781C98469E469C461E46014610F8012B94
:102530002B2A00F0A18000F29880202A00F09F80D2
:10254000232A00F09F802BB19DF8403043F04003D8
:102550008DF84030B8F1000F05D09DF8403043F0C1
:1025600020038DF84030BEF1000F05D09DF84030BB
:1025700043F010038DF84030BCF1000F05D09DF8FA
:10258000403043F008038DF840302EB19DF84030C4
:1025900043F004038DF840309DF8403003F04400D0
:1025A000442803D16FF386138DF840309DF84030F6
:1025B0002A2A43F080038DF840307FD19DF84120D6
:1025C00042F001024B1C8DF841201A782E2A9DF80A
:1025D00041200CBF0121002161F341028DF841200F
:1025E00078D15A782A2A6ED0013300224FF00A0C93
:1025F000194611F8010BA0F13006092E40F2958022
:102600009DF840101292C1F3400040EAD2700A4691
:1026100060F341028DF840205CE0BA1C03928DF813
:1026200043309DF84130DA0740F12E8154F8048B95
:10263000B8F1000F07DA9DF8402042F004028DF84F
:102640004020C8F100085E0740F1278154F804AB30
:10265000BAF1000F80F226819DF841306FF34103FB
:102660008DF841304FF0FF3A1CE12D2A0DD0302A71
:102670007FF469AF012358E74FF0010C55E74FF0A5
:10268000010E52E74FF001084FE701264DE70EFB20
:102690000262303A0346184610F8016BA6F1300C7E
:1026A000BCF1090FF3D999428FD09DF840101192D7
:1026B000D20F62F341018DF8401086E70B460022ED
:1026C0004FF00A0EE7E79DF8412042F004028DF832
:1026D000412002331A786C2A47D02BD8682A31D08F
:1026E0006A2A4BD04C2A51D01A4612F8013B039269
:1026F000782B9DF841208DF8433000F2BE806D2B81
:1027000051D8692B00F2B980572B67D8412B03D0E1
:10271000453B022B00F2B1809DF84230042262F367
:1027200002038DF84230012373E00CFB0202303AC1
:102730000B465DE7742A25D07A2AD5D19DF8412031
:1027400006210CE05A78682A9DF8412006D1012123
:1027500061F3C6028DF841200233C5E7022161F31F
:10276000C6028DF841200133BEE75A786C2A9DF8E5
:10277000412001D10421EBE70321F0E79DF841203E
:102780000521ECE79DF841200721E8E7BDF840204E
:1027900022F4F04222F0020242F4804242F00202AD
:1027A000ADF84020DFE76E3BD9B201238B4040F209
:1027B00082410B4237D113F0240F51D1D8075CD599
:1027C0009DF84230032161F302038DF8423002F09C
:1027D0007803A3F140014B424B411AE0A3F15801A9
:1027E000C9B2012000FA01F111F4624F94D140F610
:1027F000010631421DD111F4043F3ED09DF8423014
:1028000060F3020302F07802402A8DF8423034D09F
:1028100000239DF84020C2F340010B4363F34102C3
:102820008DF84020FDE69DF84230022161F302035D
:10283000E8E79DF84210022002F0780260F30201FE
:10284000402A8DF8421002BF9DF8401041F001016E
:102850008DF84010632BDBD1131E18BF0123D8E77E
:102860009DF84230032161F3020312F0780F8DF8D6
:10287000423014BF01230023CBE79DF8403043F0E2
:1028800001038DF84030C3E79DF94020002AB4BF12
:10289000DDF844804FF0FF38D5E698077FF5E2AECB
:1028A000DDF848A09DF841100023CDE911339DF8D3
:1028B000423003F00703012BC1F3C30133D1CB1E18
:1028C000042B04D8DFE803F02146462121002368C9
:1028D00001294FEAE372CDE90E321CD19DF938305F
:1028E000DA17CDE90E3204349DF8403013F00306B8
:1028F00050D0039B3A465946484620F076FD0028C2
:10290000C0F253810544039FF2E554F8043BDA1703
:10291000CDE90E32E8E70229E5D11AB243F3C0331C
:10292000CDE90E23DFE7022B24D1CB1E042B04D8E4
:10293000DFE803F0181010181800012954F8043BC0
:102940004FF0000214D00229CDE90E32CCD19BB257
:102950000E93C9E7073424F00704F4E80223CDE915
:102960000E23C1E754F8043B0E9300230F93BBE7FB
:10297000DBB2CDE7042B08D1073424F00704D4E9F7
:1029800000230834CDE90E23AEE7032BACD154F875
:10299000043BDDE79DF843007828B4D862281CD8B2
:1029A00025283FF4ADAD5828ADD10DF13603009385
:1029B000DDE90E0108AB10AA20F0D1FCBAF1000F3E
:1029C000074680F29A80002F9DD00DF13603D81B68
:1029D000002E00F0C1800130BEE06338152892D887
:1029E00001A252F820F000BFBD2A0100CF2A010049
:1029F0000729010007290100072901000729010013
:102A0000CF2A010007290100072901000729010039
:102A1000072901005D2B0100F52A01001B2B010095
:102A20000729010007290100412A010007290100A7
:102A3000F52A01000729010007290100F52A0100F4
:102A4000BAF1000F0E9F35DB5146384622F03AFDB1
:102A500007EB000A002F3FF456AF00269DF84230E6
:102A600013F01002059200F0938002305B06119A79
:102A700048BF129B0492104448BFC018B8F1000F21
:102A800040F3A0809DF84020A8EB0008C2F380032B
:102A90005007069300F19680510640F189803EB1BF
:102AA00059463046C84700287FDB069B01351E4645
:102AB00030227EE0384622F0FEFCC9E70E9B8DF8FE
:102AC0002030002608AF0DF1210A0120C6E71907C2
:102AD0005CBFC3F300135E01DDE90E2348BF2B2664
:102AE000002BBFF662AF524263EB4303CDE90E23E6
:102AF0002D265AE7002658E700269DF840200DF1C4
:102B00003603DB1B6FF386129A458DF840207FF663
:102B10005AAFAAEB0303119355E70E9890B30DF14A
:102B20003603009310AA08AB002120F018FCBDF872
:102B3000423003F0EF0343F4F04343F01003BAF1E3
:102B4000000F0746ADF84230D6DA00283FF4DBAE7E
:102B50000DF13603181A00269A467FE70E9B0729C7
:102B60003FF6D1AEDFE801F00C04060C08080C0CAF
:102B70001D70C8E61D80C6E6EA17C3E90052C2E62A
:102B80001D60C0E62E4F064607F1050A052065E7E1
:102B90001A0748BF013069E7079310460692594665
:102BA000C8470028DDE9062304DA15B0BDE8F08F38
:102BB000202243461946002903F1FF33ECDC45444B
:102BC0006D1A98462EB159463046C8470028ECDBAE
:102BD00001359DF84230DA0601D41B0705D5594668
:102BE0003020C8470028E0DB0135059B33B19DF854
:102BF00043005946C8470028D7DB0135049E2E44C0
:102C000005E059463020C8470028CEDB0135731B4C
:102C1000002BF6DC53463A465946484620F0E5FB81
:102C20000028C2DB0544A844A8EB0503002B7FF76E
:102C30006AAE59462020C8470028B6DB0135F3E7C5
:102C4000A1B703001DF0F6B82DE9F047DFF8588072
:102C5000044607464FF0010914B93846BDE8F0872D
:102C600094FAA4F5B5FA85F509FA05F32E0108EBF7
:102C700005156FEA030A24EA03042B7B002BEBD033
:102C800058F806301B694BB946440422736828463D
:102C9000196807EA0A0700F059FADDE7284698475D
:102CA0000028D9D1F0E700BF9096030030B5104955
:102CB000104889B0002226F0A0F80F4D0F490022DD
:102CC0000023CDE9062300240E23CDE90334CDE90A
:102CD00001440B4B00944FF4407228461EF06CFDEB
:102CE0000849284625F019FD204609B030BD00BF2F
:102CF000092D0100E8100020600C00204034002065
:102D0000F92F0100A7B7030001481EF0E3BE00BF82
:102D1000C80A00202DE9F04780461F480F4620F0E2
:102D2000F2FD0646002830D000252846BDE8F08791
:102D3000237B73B12368DB680BB120469847236877
:102D40001B69D3B9636804221968204600F0FEF9B4
:102D5000013610344C45EBD3B8F1000FE5D0002D0F
:102D6000E2D02846FFF770FF0546002FF7D000217C
:102D70004FF4A4701FF0B6FBF1E7204698470028F7
:102D8000E0D00AFA06F31D43E2E7044CDFF81090A6
:102D900005464FF0010ADDE7681A0020909603000F
:102DA000A0960300014B53F820007047849803005D
:102DB00008B5034608462BB1044A136000F04CFCEA
:102DC000002008BD6FF01500FBE700BF3C020020AB
:102DD00010B5044C237813B903481EF07BFE012381
:102DE000237010BDA0320020C80A002010B5044690
:102DF000084820F088FD5CB1BFF35B8F064B53E8B9
:102E0000001F013943E80012002AF8D1BFF35B8F9D
:102E100010BD00BF601A0020641A00200020064B7D
:102E2000BFF35B8F014653E8000F43E80012002A0E
:102E3000F9D1BFF35B8F7047601A002070B5FFF7C0
:102E4000EDFF084C084E0546B44200D370BD6368E0
:102E50005B792BB123685B6813B1294620469847FC
:102E60001034F1E790960300A096030010B5044CCF
:102E70000449204620F0D7FB034B1C6010BD00BF67
:102E80001C0A002070980300581A0020084A0948BC
:102E900008B500231370084A1360084A4FF4004134
:102EA0001360FFF785FFBDE80840FFF7DFBF00BFF5
:102EB000A132002003390300601A0020641A0020A8
:102EC000014600220148002320F0CEBB1C0A00204E
:102ED000014820F067BC00BF1C0A0020024B0146DD
:102EE000186820F0B1BC00BF581A0020014820F03B
:102EF000E7BC00BF1C0A002070B5284B18780028DA
:102F00004BD0FFF7E5FF054690B1BFF35B8F244B35
:102F100053E8001F013943E80012002AF8D1BFF33B
:102F20005B8F204C204EB4422DD32846FFF7D6FFAE
:102F30001E4B1F4C1B68002B19DD25F036FF4FF48C
:102F40007A72A0FB020302FB0131C30BD4E900201B
:102F500043EA41439B1A4FEAD13140F2E93261EB37
:102F60000001934271F1000101D3FFF767FFD4E93B
:102F7000003213F57A7342F10002C4E90032BDE871
:102F80007040FFF7B3BF63685B7923B123682946BC
:102F90001B68204698471034C5E770BDA03200205A
:102FA000641A002090960300A0960300601A002087
:102FB000E010002070B50D4D297861B90120FFF7B0
:102FC000A9FE0B4C0B4EB44206D3FFF795FF002829
:102FD000FBD101232B7070BD63685B791BB1236843
:102FE00020469B6898471034EDE700BFA1320020CF
:102FF00090960300A096030000212DE9F0470846B3
:10300000FFF788FE044648B340F267684FF00009B6
:103010001FF082FA1A4B186030B11A4B1B68092B4B
:1030200002DD19481EF056FD184FDFF85CA00025A0
:1030300044B12046FFF708FE044618B94FF0FF38A8
:103040004FF0FF39FFF758FF064628B9B5B9424699
:103050004B4650461EF064FD3546E9E74FF0FF3819
:103060004FF0FF39D4E72B689B691BB10022114652
:10307000284698471035BD42F5D3E8E7044DFAE7F6
:103080005C1A0020641A0020C80A0020A0960300E1
:103090009096030013B5184820F035FC174B1B78A9
:1030A0007BB14FF02003EFF3118483F31288BFF359
:1030B0006F8FFFF721FF84F31188BFF36F8F02B08A
:1030C00010BD0F4B1B68002BF9D050B90022002314
:1030D000CDE900230B484FF4004200231FF058FCB9
:1030E000EDE70A28EBD1074825F093FE064802B029
:1030F000BDE810401EF0EEBC641A0020A132002092
:103100005C1A0020E8100020C80A002010B5064B09
:103110001B68044698472146A060044820F022FB23
:10312000BDE81040FFF7B6BF3C0200201C0A00209B
:10313000044A054B9B1AB1EBD30F34BF52F8310050
:10314000002070473895030090960300084BC31A7F
:1031500010B41B1144680133237143689A714368AA
:103160001960436801225A7110BCFFF731BE00BFDD
:10317000909603002DE9F04F8FB0C1F3CB44C1F31B
:10318000492605900D46904699461734002E3CD0AE
:103190004FF0040B09AF4FF00A0A002231460BAB87
:1031A000CDF808B00197CDF800A04046CDE90B223C
:1031B0000D920796FEF772FEC0F30903181920F06E
:1031C000070080081E4663F352250693FFF778FE3A
:1031D000044678B1069B0C93103000220B900D92A0
:1031E000CDE9017B0C4A0799CDF800A00BAB404616
:1031F000FEF754FE66F3522505994B462A462046B3
:103200000FB0BDE8F04F20F0B4BB24F007008008F9
:10321000FFF756FE0446EDE7473903002DE9F04F6E
:1032200087B0DDE91269DDE9105A04460F4693467E
:103230009846B6B31021CDF8009033465246002090
:10324000CDF81490FEF754FC0146174B039104F09F
:1032500007040BF0070BE40003EA412305F1170014
:1032600044EA8B141C430844104B20F0070003EA87
:10327000C54380081C43FFF723FE054640B13EB11D
:103280000399CDF80090334652461030FEF730FCDB
:10329000434622463946284607B0BDE8F04F20F0A5
:1032A00068BB3146D1E700BF00FE07000000F87F91
:1032B0000EB403B503AB014653F8042B0448019345
:1032C00020F07EFB02B05DF804EB03B0704700BF56
:1032D000E9390300CA0605D48B064CBF02490349ED
:1032E000FFF7E6BF704700BFBDB70300BCB70300E0
:1032F0002DE9F04F89B09B469DF848300493DDE9F5
:1033000013930593049B0692DDE9157604460D465A
:10331000002B00F0878006F00803079320F011FBD4
:1033200006F0020A024600284BD086492046FFF7E5
:10333000BFFF8046BAF1000F08D016F0440F42D10B
:1033400081492A462046FFF7B3FF804406F0010377
:103350005BB17E4B049A7E4953F822207D4B204678
:10336000002A08BF1A46FFF7A3FF06F00803002B48
:1033700055D0794B049A794953F822202046FFF71B
:1033800097FF0546069B2BB175491A462046FFF765
:103390008FFF0544BBF1000F05D072495A46204605
:1033A000FFF786FF05444544B9F1000F49D1002FCE
:1033B0004FD1F30700F1C08031462046FFF78AFF66
:1033C000B4E08046B6E7684B18680028BDD0674B6C
:1033D0004FF47A7E1B68B5FBF3F54FF46162B5FBE1
:1033E000F0F300FB1355B3FBF2FA0EFB05F502FBFD
:1033F0001A323C21B5FBF0FCB2FBF1F300FB1C558B
:1034000001FB13220EFB05F50092B5FBF0F55849C0
:10341000CDE901C552462046FFF74AFF95E706F081
:103420000805AFE7BBF1010F06D1B9F1000F64D178
:10343000002F7BD000250CE0B9F1000FF8D04D48EB
:103440005CE04D484D494B4622461FF0ACFB002F37
:1034500068D0DFF82C91DFF82CA1102F31462046E0
:10346000B84628BF4FF01008FFF734FF4FF0000BAD
:103470005D4545DC059B51461A782046FFF718FF4D
:103480004FF0010B1BF0070F03D149462046FFF711
:103490000FFFD8453BD9059B514613F80B2020461A
:1034A000FFF706FF0BF1010BBBF1100FEAD1364914
:1034B00020464FF0000BFFF7FBFE5A46059B9A5C37
:1034C000A2F120015F2928BF2E2230492046FFF7B4
:1034D000EFFE0BF1010BBBF1100F1DD01BF0070F1E
:1034E00003D149462046FFF7E3FED8455A46E5D8C2
:1034F00049462046FFF7DCFEEBE71F48049DA1E7A5
:1035000049462046FFF7D4FE0BF1010BB0E72049F6
:103510002046FFF7CDFEC5E7059BB7EB0807434400
:1035200005939AD1049B002B7FF443AF204609B04A
:10353000BDE8F04F20F04BBA064A05492046FFF798
:10354000B7FE39E7C4B70300C8B703009498030077
:10355000ADC80300BFB70300A8980300EDB7030090
:10356000F3B70300F7B70300701A00206C1A0020AD
:10357000D1B703001F3A0300E9390300C139030042
:1035800004B80300FCB7030006B8030008B8030042
:1035900002B803002DE9F0410F884B688E6886B0B1
:1035A00005460C469046C7F382175BB1134A9B1A37
:1035B00043F3CF0100291FDB2078C0F3C200FFF7DF
:1035C000B7FD03462146608851F8102B0097C2F3DF
:1035D0004922002A01EB0204C0F3CB0008BF0021FE
:1035E000CDE90308CDE90114002231462846FFF752
:1035F0007FFE06B0BDE8F0810023E3E738950300C5
:1036000073B542F20F738B4228BF0B4605680F4A11
:103610000446052168461FF0B9FB63680C495B68E6
:1036200006460B22284620F0BEF9636832466946FA
:1036300028465B6820F0B7F9636806495B681B227F
:10364000284620F0B0F902B070BD00BFBBEB03000C
:1036500027B803000BB80300074A0021012390425A
:1036600006D8064A01B901231360054B186070475C
:1036700040085B000121F2E740420F006C1A002075
:10368000701A0020014B002019607047881A002032
:10369000024B034801221A7020F099B9A33200208E
:1036A000D89803000148FFF7ABBF00BFD8980300CC
:1036B00010B5064B18680C46FFF774FB214603460D
:1036C000BDE8104002480F22184700BF881A0020AA
:1036D000D8980300F8B5074F0D4604464618B44283
:1036E00001D12846F8BD14F8011BBB6801485B688E
:1036F0009847F4E7409203001FB507240294044C56
:103700000194BDF81840009423F0F3FB04B010BD01
:10371000F90900202DE9F7430F4606460821C06A43
:10372000DFF8509020F034FA3C68241A80463C6060
:1037300004EA0905AC4203D8002003B0BDE8F083D9
:1037400008236A462146304620F092F90028F4D139
:103750006946304620F026FA40B1BDF80230BDF887
:1037600004203C6005EA090513441D44A4EB080449
:10377000E0E700BF0000FFFF2DE9F04F89B00446ED
:1037800000AF00F11408404624F0DDFFA06A836812
:10379000DB689847E062B0B96C4688B06A46974BE0
:1037A0005361974B9361032342F8103F95484FF4C0
:1037B000C25120F0EAF96FF01505A54628462437D6
:1037C000BD46BDE8F08FA06A8368DB689847036850
:1037D000013B1F2B04D96C4688B06A468A4BDFE751
:1037E000A06A216807F1140224F03DFD20B16C4667
:1037F00088B06A46854BD3E7A5892DB1BB69B5FB77
:10380000F3F203FB125525B16C4688B06A46804B33
:10381000C6E7E389012B04D86C4688B06A467D4B25
:10382000BEE7E36A3D6093F804A04FF0FF334FF02A
:10383000FF3240461EF064F8E06A082120F0A8F943
:10384000A9460646E3891FFA85FB5B4508D8E3894C
:103850004B4523D140461EF0CDF86FF02C05ADE767
:10386000A1892B04891B13FA81F1524608232046B3
:10387000396020F042F978B13946204620F006F947
:1038800009F1010939680823524620461FFA89F9CF
:1038900020F033F90028DAD00135D3E75B450BD1AE
:1038A000396808235246891B204620F026F918B9AA
:1038B0003946204620F0EAF839462046FFF72AFF2D
:1038C000054618B140461EF095F877E73B686360FF
:1038D0004FEA13494FEA0949C4F80890D4E90113A3
:1038E00099420FD308233A1D204620F0C1F805461F
:1038F0000028E7D13B1D13F8012B924549D1013532
:10390000082DF8D163681B0C1B04394620463B6028
:1039100020F0BCF8A38939685246204620F0EDF823
:10392000051ECFDB636800F08B8006EB03094FF6C2
:10393000FF7AA389C7F800901FFA89F29B1B9A426D
:1039400041D36D4688B06A46334B5361334B936124
:10395000032342F8103F2B484FF4C65120F015F9CD
:103960002046AD46616820F0EDF805460028A9D153
:1039700063682B4AA18913400B44A3EB46036360A1
:103980001340A360204620F0EFF90546002D73D0C8
:1039900098E7391D204620F005F9626810B9921B9E
:1039A00062609BE73D89F988E06AC4F80890294481
:1039B00020F0EEF848449042A060F0D1002DEED007
:1039C0006FF01C05A5E0082307F10C0249462046CC
:1039D00020F04EF8054600287FF474AF07F10C0183
:1039E000204620F0DFF830B1BB89534503D13B8A34
:1039F000002B00F09480B1449BE700BFA7B8030000
:103A0000F7B9030018960300CDB80300EEB8030021
:103A10000AB9030022B903008FB90300EBB9030010
:103A20000000FFFF5B1A5246204620F066F8051E94
:103A3000FFF648AF08D0E26AA36812681344A36097
:103A4000D4E901318B42EDD86168A38901EB4602CC
:103A50009A429BD1DFF80091A36801EA09029342E0
:103A600094D0204620F06EF8054600287FF42AAF57
:103A7000636803EA0903A360A389A288A3EB460352
:103A80009A4242D040461DF0B5FF0123E8468AB075
:103A90002374E289A3896D46DFF8C0A030496961CB
:103AA0002E464FF00509C5E906A22B6246F8109F85
:103AB0002C4832464FF4235120F067F8C54663681E
:103AC000AD46294A2748C5F81090C5E9052A1A0CC1
:103AD0009BB2EA612B6232464FF4235120F055F835
:103AE000C546A368AD46214AC5F81090C5E9052A28
:103AF0001A0C9BB2EA612B621A4832464FF42351EA
:103B000020F043F80025C54658E6204620F017F976
:103B1000054640461DF06EFF002DB6D04EE66D46C0
:103B200088B06A46124B5361124B9361032342F8EB
:103B3000103F0C484FF4C65120F027F863681B0C67
:103B40001B0439462046AD463B601FF09FFF396895
:103B500020461FF0F7FF18E70000FFFFF7B903004A
:103B600049B903001896030064B903007AB9030049
:103B7000BAB90300EBB903002DE9F04F89B01D4637
:103B800000AF037C796004469146B3B96C4688B0B7
:103B90006A46694B5361694B9361032342F8103FB6
:103BA00067484FF4C2511FF0F0FF6FF00C06A546B6
:103BB00030462437BD46BDE8F08FC26A0821104662
:103BC0001FF0E6FF2946824610461FF0E1FFA38959
:103BD000A3EB8A03AB428046C0F0AB801DB1B9F1C4
:103BE000000F00F0A6806368FB6007F1100207F188
:103BF0000C012046D7F80CB020F00CF8064600283F
:103C0000D6D13B8A7A68934205D06268FB689A42B3
:103C1000EBD1DDB9CCE707F1100120461FF0C2FF60
:103C20000028F2D0788ABB8A75B1AB420ED14FEA38
:103C30001B41090401442B464A4620461FF033FF2E
:103C4000002803DC0646B3E7002BB1D0B8F1000F23
:103C50003ED104F114033B604FF0FF324FF0FF33CD
:103C600004F114001DF04CFEDFF8D8B0E3899E4249
:103C70005CD0D4E9012308EB03018A422CD37A6893
:103C80007B83FF233A83BB7707F11800BD831FF0C6
:103C900073FFA1682B464A46204620F005F82946C6
:103CA0008246E06A1FF074FFA2680244A260BAF183
:103CB000000F08D107F11801204620F02FF8002846
:103CC00014BF8246AA4638681DF094FE56466FE738
:103CD000D0441FFA88F8BCE70821E06A1FF058FFBB
:103CE0004FF6FF733B830023BB8313187B83A389A9
:103CF00002EA0B021A44101A606007F118001FF064
:103D00003BFF07F11801204620F008F8211D20464E
:103D10001FF0BCFE636803EA0B03A360204620F09B
:103D200023F882460028CED101369FE76FF01B0AA8
:103D3000C9E76FF015063BE78FB80300E1B9030050
:103D4000189603000000FFFF2DE9F04F85B01E46D6
:103D500000AF037CB7F838A0044688469146ABB95B
:103D60006C4688B06A46304B5361304B93610323F5
:103D70002F4842F8103F4FF4C2511FF006FF6FF07A
:103D80000C00A5461437BD46BDE8F08FC06A082177
:103D90001FF0FEFEA389A3EB4003B34240D3D4F847
:103DA00004B0C7F804B0002555455946D7F804B00B
:103DB00008D963685B451ED13B8943451BD06FF032
:103DC0000100DFE707F10802391D20461FF022FF3E
:103DD0000028D7D13B89434507D107F10801204688
:103DE0001FF0E0FE08B10135ADB262687B689A420F
:103DF000DAD15946E0E7BB89002BE0D0AA45DED8EE
:103E00007889090CB3424FEA014128BF3346014487
:103E10004A4620461FF02CFE0028B3D1B889B1E7EE
:103E20006FF01500AEE700BF8FB80300D3B90300F1
:103E30001896030070B5114B1C680D46DCB1104B91
:103E4000196800238B4202DB6FF0010070BD22462F
:103E500012F8106B864202D001331446F2E7E06894
:103E600010B96FF01200F1E724F088FB0028F8D0B9
:103E70002C600020EAE76FF00C00E7E75802002012
:103E80007499030070B588B005460C46C0B2694607
:103E90001646FFF7CFFF00281BDB0098C8B1436828
:103EA0000293836822680195CDE903360023CDE9AA
:103EB00006230593C56820F02FF86DB12846084900
:103EC00001AA24F0D4F9079808B9059B236008B02B
:103ED00070BD6FF01500FAE76FF01200F7E700BF52
:103EE0001B3F03002DE9F0410F4B1C6805460E46B1
:103EF0001746ACB14FF0FF324FF0FF330B481DF0C7
:103F0000FFFC63683246D3F8088029463B462046CA
:103F1000C047044605481DF06DFD2046BDE8F08110
:103F20006FF00104F9E700BF8C1A0020B40A0020EA
:103F300000230360044B5A6812B9C3E900007047BC
:103F400010605860704700BF901A0020014B186045
:103F5000704700BF8C1A002030B585B0002305469D
:103F6000CDE9023301904FF0FF330C484FF0FF32A0
:103F70001DF0C6FC0A4B1C684CB9284600F0E4F85A
:103F8000044606481DF036FD204605B030BD636886
:103F900020461B6801A998472468EDE7B40A002071
:103FA000901A00201FB5CDE9010103924FF0FF33B5
:103FB0000A484FF0FF321DF0A3FC094B1C682CB9D6
:103FC00006481DF017FD204604B010BD636820466A
:103FD0001B6801A998472468F1E700BFB40A0020D4
:103FE000901A0020024B0022C3E90022704700BF54
:103FF000901A0020024B0022C3E90022FFF7F2BF13
:10400000981A00202DE9F74307460C4609B1002312
:104010000B601F4DDFF87C9000264D450FD31E4BE3
:104020001D6885B355F8148C01AA41463846143DE5
:104030001FF09CFF10B3D6B914BB2E461EE0D5F876
:10404000008001AA414638461FF090FF50B116B9D2
:1040500054B92E4606E03168002240461FF086FF24
:104060000028F5D11435D8E7019B2360F1E73168CA
:10407000002240461FF07AFF0028DDD16D69D0E7AD
:10408000019B2360D9E7304603B0BDE8F08300BF51
:10409000A096030018970300981A00202DE9F04716
:1040A00084B002AF0446D7F8289078600D461646D3
:1040B0009846B9F1000F07D0D9F8001041BBD9F8E4
:1040C00004A0BAF1000F2AD1391D2046FFF79AFF4C
:1040D00018B3D0F808907868434632462946C84756
:1040E000D8B16D468AB002AA134B5361134B1062CC
:1040F000C2E9063440F201339384114B42F8103F79
:10410000104800234FF43151FFF734F8AD4604E076
:104110003A1D1FF02BFF0028D1D1002007E0D9F86D
:10412000083000937868434632462946D04708371E
:10413000BD46BDE8F08700BF08BA030031BA0300EE
:104140000500000170960300F8B5184C184F06469C
:104150000025BC4208D3174B1C682CB3143CB6B9DD
:10416000E368E3B96469F8E72EB9E3685BB9284608
:1041700014340546EDE72068002231461FF0F6FEB4
:104180000028F2D1F3E79847002DF0D1F0E720683E
:10419000002231461FF0EAFE0028E1D1E2E798470D
:1041A000002D08BF0546DDE72846F8BDA0960300B0
:1041B00018970300981A002010B5074C23780BB10C
:1041C000002010BDFFF716FF00F066F80028F8D1B8
:1041D00001232370F4E700BFA43200202DE9F0474B
:1041E000048FDFF8B0A0013498B080468946A4B2AD
:1041F00000F10806651EADB2B5F5004F47D04A2361
:1042000005AA294630461FF080FE04F57F543F344E
:10421000A4B20746214601230DF10B0230461FF0E0
:1042200074FE002F014603DC002803DC2C46E1E786
:10423000002816DCB8F83830AB4209D142466B1E74
:1042400022F8383F4FF4004102233046FFF794FC38
:10425000294630461FF055FE214630461FF051FEDC
:10426000E4E707F160030DEB0307002307F84C3C7C
:104270005246CDF8009003AB05A80396ADF8104068
:10428000FFF70CFF0028D1D018B0BDE8F087002060
:10429000FAE700BFDD3F03007FB501236946022036
:1042A0000193FFF7C7FD044660BB02AA01A90220E3
:1042B000FFF7E8FD044610B110F10C0F22D103996D
:1042C000B1F5803F23D2009A002394681846084431
:1042D00084421AD30133082BF9D10E4DA982EB8207
:1042E0005368AB602846D368EB631FF011FF0446A8
:1042F00040B9094E6E602846FFF71AFE28466E60E8
:10430000FFF724FE204604B070BD9BB2E5E76FF0D6
:104310002004F7E7A01A00205C0200202DE9F843F2
:1043200005464FF02003EFF3118683F31288BFF3A5
:104330006F8F0E4B0E4F1C68DFF838804FF00C0962
:104340002CB986F31188BFF36F8FBDE8F883D4E9E9
:104350000123002D18BF13462BB198F8142009FB38
:1043600002F2B85C98472468EAE700BFF81A002018
:10437000EC1A00203832002070B5194B1C7DBFF3B9
:104380005B8F04F01F0301229A40164B610903EB77
:104390008103D04353E8001F01EA000543E80056BB
:1043A000002EF7D1BFF35B8F0A4213D00E4B0F4D97
:1043B0008BB10C236343EA18E85C517821F0DEF8F6
:1043C0000020FFF7ABFF0C235C432A1900232B517D
:1043D000C2E9013370BD83F31188BFF36F8FEFE73C
:1043E00038320020001B00207D550300EC1A00200D
:1043F0002DE9F041354B07461D7D4FF02003EFF3CB
:10440000118883F31288BFF36F8F0C24304B314E29
:104410006C431A19195D00294CD007CA06EB040C2D
:104420008CE8070000221A5588F31188BFF36F8FBC
:104430000C236B43F218F05C002839D07B1C10D0A1
:10444000D2F808C0244C254A4FF400400021ECFB70
:10445000004100232046FBF7A3FE0121381A24F077
:1044600084FC1DF081FF0120FFF758FFBFF35B8F35
:104470001B4B6A0903EB820305F01F0101228A40EE
:1044800053E8000F104343E800010029F8D1BFF3BF
:104490005B8F144B3BB10C2303FB05F03318305CEE
:1044A000597821F05FF8FFF767FF1DF071FF0120D9
:1044B000BDE8F0810146284600F016F80028B3D088
:1044C00007C8344484E80700AEE700BF3832002054
:1044D000E01A0020EC1A00203F420F0040420F007B
:1044E000001B0020655503002DE9F04F85B00E46F6
:1044F00003A900F043F81E4B039DD3F800A0DFF89A
:104500007480431E1BB203EB4303044605EB830593
:104510004FF400474FF0000B24B9A146484605B0C0
:10452000BDE8F08F6868144AC4465946E0FB07C1ED
:1045300000236046FBF734FE0190A8680E4AC4468B
:104540005946E0FB07C100236046FBF729FEBAF19C
:10455000FF3FA94601D0824505D9731CDED0019BDF
:104560001844B042DAD9013CA4B20C3DD4E700BFF4
:10457000700200203F420F0040420F0008B9024B7A
:104580000B600020704700BFA8990300014B18681A
:10459000704700BF74020020F0B5082289B01FF0F8
:1045A0008EFFCB6A03930B6B04934B6B05938B6B62
:1045B0000693CB6B079313466A460C4606460027C4
:1045C00011461046CDE9017700971FF086FE31466F
:1045D000054630461FF081FE216B0391616B04910B
:1045E000A16B0591E16B0544CDE906171046114614
:1045F0001FF073FE3146054430461FF06EFE054441
:10460000206A0090606A0190A06A0290A06B0690F8
:10461000E06B07903046CDE9047703971FF05DFE0D
:104620000544606A0090A06AD4F838C00190E06A3E
:104630000290CDF810C0606BD4F83CC00390CDE977
:1046400005C0206A079030461FF047FE0544E06A27
:104650000090206B0190606B0290206A0690A06A27
:1046600007903046CDE9047703971FF05BFF236B7B
:104670000093636B0193A36B0293E36B0393636AF1
:104680000693E36A07932D1A082330461FF04AFF6A
:10469000636B0093A36B0193E36B0293236A039311
:1046A000636A0493A36ACDE90537236B07932D1A38
:1046B000082330461FF036FFA36B0093E36BCDE970
:1046C0000137636A0393A36A0493E36A0593636BF8
:1046D00007932D1A082330461FF024FF2D1A10D4FB
:1046E0000D4C35B90822314620461FF0F4FE012852
:1046F0000FD008232246314630461FF013FF2D1AF3
:10470000EFE7054A0823314630461FF0E6FD2D1835
:10471000F8D409B0F0BD00BFAC9903000449431EB2
:104720000F3013F8012F8A5C1A708342F9D1704759
:104730004EBA0300F0B5264E07460C460FCE8DB09C
:1047400001AD0FC50FCE0FC596E8070085E807003D
:104750003846002F38D0002C38D0381F214602466A
:1047600010344B780D781B0443EA0563CD782B4356
:104770008D78043143EA05238C4242F8043FF0D19E
:10478000144C04218A07036916D1C3F30742A55CC0
:104790001A0EA25C42EA0562C3F30725DBB2655D2F
:1047A000E35C42EA054242EA032221F0030330338C
:1047B0006B4453F82C3C534050F8042F01315340C4
:1047C0002C290361DED101200DB0F0BD2046FBE7AE
:1047D000349703004EBA0300014910220A60704763
:1047E00010ED00E072B6404080F31188BFF36F8F88
:1047F000BFF34F8F30BF62B6BFF36F8F704700BFFC
:1048000072B6494081F3118820BF80F3118862B6E7
:10481000704700BF2DE9F84F824600AF0C460029D3
:1048200052D06E468AB0D1E90012A3686D46DFF817
:10483000A8902A486861A8464FF0060BC5E9069182
:10484000C5E9082348F810BF2548424600234FF425
:104850004151FEF78FFCB546D4E903126369AD46BA
:1048600020486B62C5E90509C5E90712C5F810B013
:104870001B48002342464FF44151FEF77BFCB546EE
:1048800088B0E3696D46184AEB61A8464FF0040B07
:10489000C5E9052948F810BF1148002342464FF4E6
:1048A0000151FEF767FCB546A369AD460F4AEB61BF
:1048B000C5E90529C5F810B00948002342464FF460
:1048C0000151FEF757FCB546214650461CF07CFDD1
:1048D000BD46BDE8F88F00BFF9BB03004EBB030027
:1048E0005896030081BB0300B4BB0300C7BB0300A1
:1048F00040B2002807DB044A4109012300F01F00F1
:10490000834042F82130704700E100E040B20028C7
:104910000CDB4309064900F01F00203301228240CE
:1049200041F82320BFF34F8FBFF36F8F704700BF55
:1049300000E100E0054B420900F01F0053F822207F
:10494000012303FA00F01040704700BF00E100E0CF
:1049500040B20028A8BF00F1604001F10101B8BFDA
:10496000064B4FEA4111ACBF00F5614000F00F006B
:10497000C9B2B4BF195480F80013704714ED00E0B9
:1049800008B572B6044B9A691AB100229A6123F0F5
:10499000CBFE62B608BD00BF3832002030BFFFF743
:1049A000FDBF00BF0F4A08B50F4B22F07F029A608F
:1049B000BFF34F8FBFF36F8FD3F8882022F47002BC
:1049C000C3F88820EFF3148323F0040383F31488DF
:1049D000BFF36F8F1CF0B8FD1DF016FE00F040FC19
:1049E0001CF0F6FD0000010000ED00E0094A0A4954
:1049F00093680968D967094998674B6843F0805301
:104A00004B60002383F31188BFF36F8F9368D86FD7
:104A1000704700BF38320020B8B4030000ED00E05A
:104A200012498A684FF030001044EFF3098C80E897
:104A3000F01F202080F31288BFF36F8F0C4F4FF0D0
:104A40000066CA698A603E60906F0023936780F3B6
:104A5000118804B5104600F049FCBDE8044002F19D
:104A6000300090E8F01F8CF309887047383200203E
:104A700004ED00E01EF0040F0CBFEFF30880EFF32D
:104A80000980816911F8021C0229FFD001B520F0CC
:104A90006BFC01BD42F8203C009B42F81C3C0A49DB
:104AA000019B42F8183C029B42F8143C21F00101A2
:104AB0004FF0807342F8043C42F8081C0023203A6F
:104AC00002658367704700BFA72D0300094A0346AC
:104AD000906870B113F1160F806E05D0A0F14002FE
:104AE0009A4205D8834203D2814228BF00207047F2
:104AF000002070473832002008B5094B98600D46F9
:104B0000144600F0F3FB204685F30988002163B6C4
:104B100081F31188BFF36F8F002200231EF043F949
:104B20003832002001B572B60B4A906900281EBFCA
:104B30000021916123F0F8FD62B6EFF30580A0F14A
:104B400010004FEAC0000549014409C99847BDE873
:104B50000140034908470000383200200093030059
:104B6000654B0100044B9968D869884203D003491A
:104B70004FF080520A6070473832002004ED00E0A8
:104B80002DE9F84300AFE84688B006460D466A4670
:104B90004D4B4E4C53614FF0030994614FF4C25199
:104BA00042F8109F4A4820F0EEFB4A4B9B6AD9041A
:104BB000C5460CD588B06A46474B4548C2E905341E
:104BC0004FF4C25142F8109F20F0DDFBC546414B27
:104BD0009B6A1A050ED5E84688B06A463F4B3C48AA
:104BE000C2E90534032342F8103F4FF4C25120F0CC
:104BF000CAFBC546DFF8DC90D9F828309B052AD5DA
:104C0000E84688B06A46364B3148C2E9053403238A
:104C100042F8103F4FF4C25120F0B5FBD9F83830BC
:104C2000D9F828201004C54615D588B06A462D4904
:104C3000D3610423C2E90514254842F8103F4FF41C
:104C4000015120F0A0FBC5462EB1D9F8283023F43D
:104C50000043C9F828301F4B9B6A59050ED56E4694
:104C600088B06A46204B1A48C2E90534032342F84B
:104C7000103F4FF4C25120F086FBB546154B9A6A9F
:104C8000D20518D56E4688B06A46184B1048C2E95E
:104C90000534032342F8103F4FF4C25120F073FB58
:104CA000B5460C4A936A002043F47F439362287010
:104CB000BD46BDE8F8839B6A9B04F2D56E4688B07A
:104CC0006A460B4BE2E700BF02BC0300DDBF0300F6
:104CD0005896030000ED00E01CBC030031BC03004B
:104CE00048BC030065BC03007EBC03009DBC030000
:104CF000B9BC0300F8B500AF6D4688B06A46434BB7
:104D0000434C536103269461424842F8106F4FF4BC
:104D1000C25120F038FB404B9B6A9B01AD460CD53D
:104D200088B06A463D4B3B48C2E905344FF4C25156
:104D300042F8106F20F027FBAD46374B9B6ADD0130
:104D40000ED56D4688B06A46354B3248C2E9053407
:104D5000032342F8103F4FF4C25120F014FBAD463C
:104D60002D4B9B6A18030ED56D4688B06A462D4BB5
:104D70002848C2E90534032342F8103F4FF4C251DA
:104D800020F001FBAD46244B9B6A59030ED56D46BE
:104D900088B06A46244B1F48C2E90534032342F811
:104DA000103F4FF4C25120F0EEFAAD461A4B9B6A09
:104DB0009A030ED56D4688B06A461C4B1548C2E969
:104DC0000534032342F8103F4FF4C25120F0DBFAC0
:104DD000AD46114B9B6ADB030ED56D4688B06A4623
:104DE000134B0C48C2E90534032342F8103F4FF43B
:104DF000C25120F0C8FAAD46074A936A6FEA0343EE
:104E00006FEA134300209362BD46F8BDECBC03007B
:104E1000D1BF03005896030000ED00E008BD030079
:104E20001FBD03003DBD03005FBD030088BD03003F
:104E3000A6BD03002DE9F84F00AF6E4688B01546B9
:104E4000804689466A465A4B5A4C53614FF0030AD2
:104E50009461594842F810AF4FF4C25120F093FAD0
:104E6000564B9B6ADB06B5460CD588B06A46544B58
:104E70005148C2E905344FF4C25142F810AF20F056
:104E800082FAB5464D4B9B6A1E070ED56E4688B01A
:104E90006A464C4B4848C2E90534032342F8103FA8
:104EA0004FF4C25120F06FFAB546DFF810B1DBF8CD
:104EB0002830980740D46FF01506404B9B6ADA07FC
:104EC0000ED5E94688B06A463F4B3B48C2E90534F7
:104ED000032342F8103F4FF4C25120F054FACD465C
:104EE000364B9B6A9B060ED5E94688B06A46374B1F
:104EF0003148C2E90534032342F8103F4FF4C25150
:104F000020F041FACD462D4CA36AD80642D4A36ABC
:104F100099073FD40020A36A284A9B0642BF636AD0
:104F200023F400536362936A43F0FF039362002308
:104F30002B70BD46BDE8F88FEA4688B06A46244B20
:104F40001D48C2E90534032342F8103F4FF4C25113
:104F500020F019FADBF83460DBF828301906D54662
:104F6000A9D588B06A461B4BD661C2E90534042333
:104F700042F8103F10484FF4015120F004FAD54692
:104F8000B9F1000F99D0DBF8283023F08003CBF87B
:104F9000283092E763681A05BCD541463046FFF7D2
:104FA00095FD0028B6D080F309880220B3E700BF42
:104FB000D5BD0300E7BF03005896030000ED00E0F5
:104FC000EFBD030031BC03005CBE0300B9BC0300AD
:104FD00026BE030042BE03002DE9F047864B8AB08F
:104FE000D3F8048000AF0546C8F30804002686F312
:104FF0001188BFF36F8F02F07F43B3F17F4F13D15E
:1050000002F00C03082B1ED16D4688B06A467B4B1C
:1050100053617B4B9361032342F8103F79484FF46F
:10502000C25120F0B0F9AD46002635460023FB7191
:10503000E31E092B00F2C180DFE803F00AA7AAA350
:10504000BFBFBFBFBFAD10074CBF0D460126EDE788
:10505000E84688B06A466C4BDFF8B09153614FF078
:10506000030AC2F81890674842F810AF4FF4C251D3
:1050700020F089F90023604CFB71E36A9A07C5466A
:105080000DD588B06A46624BC2E9053942F810AFC7
:105090004FF4C2515B4820F076F9C5468BE0E36AD5
:1050A000002B03DA88B06A465A4BEDE7E36A5B00EF
:1050B00040F1818088B06A46574B5248C2E90539B1
:1050C0004FF4C25142F810AF20F05DF96369AA694C
:1050D00043F48073C5466361BFF34F8FBFF36F8F97
:1050E000636932F8022C23F480736361BFF34F8F3E
:1050F000BFF36F8F4DF602739A4208D0A36ADBB2FA
:1051000093B3FA1D01212846FFF794FE3BE088B0D7
:105110002B686A464149D3610423C2E9051939481D
:1051200042F8103F4FF4015120F02DF92C68C5468C
:10513000FB79ABB92022294607F1080020F0FBF9E2
:105140007B6A002E52D0C3F3080222B96FEA5323C0
:105150006FEA43237B6207F108012046FFF75AFB01
:105160002837BD46BDE8F087A36A13F47F4F04D00B
:10517000F91D0120FFF704FD05E0A36AB3F5803FA8
:1051800019D3FFF7B7FD0446D2E7FA1D0021BAE7AD
:10519000F91D0020EEE76C4688B06A46204B53614B
:1051A000204B9361032342F8103F16484FF4C2513D
:1051B00020F0E9F8A5460024BAE71B4A1B4B18F477
:1051C000F87FE8468AB018BF13466A46184951610D
:1051D0001849C2E9061340F201339384103C164B80
:1051E00014624FF4315142F8103F53E723F4FF7338
:1051F00023F00103AEE700BF00ED00E0ADBE030009
:1052000003C0030058960300DCBE0300F8BF030090
:10521000F7BE03001CBF03002EBF030051BF0300F5
:1052200071BF0300C3BF030094BE03007FBE030031
:1052300099BF0300B0BF030005000001024A536993
:1052400043F010035361704700ED00E0EFF3088076
:10525000EFF3098101B57246FFF7BEFE01BD00BF45
:10526000044800232021C2180133302B82F8001398
:10527000F9D1704700E100E0FDF7E4FC202080F365
:10528000118808484FF40461401880F30988EFF34F
:1052900014800221084380F31488BFF36F8FFFF757
:1052A00081FB0000404B0020084B9B6883420BD1E0
:1052B000EFF3058343B1064B5A6842F080525A60BF
:1052C0005A6A22F400425A621DF02CB9383200208A
:1052D00000ED00E0024B034A0348012100F09AB8B8
:1052E0000000042000000020589A0300826E054B45
:1052F000403A1A60044A4021C3E9011218460121CC
:1053000000F092B8041B002000000B152DE9F041BD
:10531000DFF8BCE09C4600AF154600238B421CDA48
:105320004468002C51D0BCF1000F1FD0661E3442DF
:1053300017D06C4688B06A46264951612649C2E9B1
:105340000613042342F8103F244800234FF4015170
:10535000FDF710FF6FF01505A5462846BD46BDE8D0
:10536000F0811F2CE5D902681642E2D1202C026898
:1053700086685FFA85F816D9B4F1004F15D8013C5C
:10538000B4FA84F4C4F11F046400B8F1070F46EACC
:1053900004060CD96C4688B06A46114B5361114B18
:1053A000C2E90635CDE70824EFE73E24EDE722F019
:1053B0001F022A4342F0100246F00106CEF8985030
:1053C000CEF89C200135CEF8A06001330C30A5E763
:1053D00000ED00E00FC0030079C003004896030011
:1053E00036C0030060C00300044B0522C3F89420BC
:1053F000BFF34F8FBFF36F8F704700BF00ED00E02A
:10540000BFF35F8F024B0022C3F89420704700BFA8
:1054100000ED00E010B5034C01232278FFF776FF82
:10542000207010BDA532002008B5094A002312786B
:10543000FFF76CFF10F1160F03D0064B0022072870
:1054400000DD08BDC3F89800C3F8A0200130F6E7DE
:10545000A532002000ED00E014490868082810B5C6
:1054600021D8FFF7CDFF124C49680022904201F18C
:105470000C0105D10F4B1870FFF7B6FF002010BDCF
:10548000C4F8982051F80C3C23F01F03134343F059
:105490001003C4F89C3051F8043C43F00103C4F8F5
:1054A000A0300132E2E74FF0FF30E8E7649A0300F2
:1054B00000ED00E0A5320020014B1860704700BFEE
:1054C000780200204FF02002EFF3118382F312885C
:1054D000BFF36F8F044A0121C2F8401583F311888E
:1054E000BFF36F8F0020704700E0014020B1034BF5
:1054F000800143F001031847704700BFE0970300A5
:1055000008B50D4823F03AF810B96FF0120008BD45
:10551000094823F033F80028F7D008484FF4202139
:1055200020F032F80028F2D1BDE8084004484FF4DA
:10553000B01120F029B800BFE09103008C9A03005D
:10554000849A03000E4B402970B528BF40210D4CB2
:1055500046181D46B04203F1020304D1002305F8AA
:105560001130074870BD02781209A25C03F8022CC2
:1055700010F8012B02F00F02A25C03F8012CE9E7FE
:10558000C4320020BCC0030030B503788BB00446A1
:1055900007AD032B21D8DFE803F0021A1C1E1249C5
:1055A00028461FF06AFF059563780493A378039358
:1055B000E37802932379019363790093A3790B4AEB
:1055C0000B481E211DF0E2FB09480BB030BD094914
:1055D000E6E70949E4E70949E2E7094A0A212846DA
:1055E0001DF0D4FBDFE700BF53B5030075B5030022
:1055F000A63200205AB5030061B503006BB5030065
:105600005EE303002DE9F0416E4DBFF35B8F2C6824
:10561000BFF35B8F14F0010400AF68D0DFF8A881FE
:105620006A4C6B4E6B48424621461EF0AAFD03466B
:10563000002849D16C4688B06A466749516167497C
:105640009161032142F8101F65484FF4C251FDF7E4
:1056500091FD4FF01F08A5464FF0FF324FF0FF338A
:10566000012000F0B7FB00F10C0602210446304691
:1056700022F0FEF93E23037042234370012130469D
:1056800022F0F6F9082303704121304622F0F0F9A8
:10569000064600F8018BB8F1000F1FD04022002110
:1056A0001FF054FFBFF35B8F55E8003F23F0010369
:1056B00045E80032002AF7D1BFF35B8F204601F0A6
:1056C00003FEBD46BDE8F0812022314620461FF092
:1056D00022FF0028A6D04FF00008BDE73D491FF08B
:1056E000DDFF203106F121001FF0D8FFDAE7BFF31C
:1056F0005B8F2B68BFF35B8F9B07E2D53249354840
:105700001FF0FDFB002844DA6E4688B06A46354B30
:105710005361354BC2E90630042342F8103F30484C
:1057200023464FF40151FDF725FDB5464FF0FF32FA
:105730004FF0FF33012000F04DFB00F10C08022177
:105740000646404622F094F93E230370222343701C
:105750000121404622F08CF90923037021214046A3
:1057600022F086F90346013034BB1F221A70FF2154
:1057700020221FF0EBFEBFF35B8F55E8003F23F0C4
:10578000020345E80032002AF7D1BFF35B8F3046B1
:1057900095E70E49BFF35B8F2B680D48BFF35B8F16
:1057A00013F0040F01F12002074B18BF0146104609
:1057B0001EF036FD0446B9E7002206491A701FF0B4
:1057C0006DFFD8E7101B0020949A0300453300209A
:1057D0004EC1030065330020D4C0030040C1030064
:1057E000C895030001C1030026C1030070B5214C18
:1057F000BFF35B8F2368BFF35B8FDA0706460D4666
:1058000001D50C2070BD012931D8BFF35B8F54E85E
:10581000003F43F0020244E800210029F7D1BFF322
:105820005B8F9B07EDD4144831461FF037FF1348B8
:1058300006F120011FF032FFBFF35B8F75B154E812
:10584000003F43F0040344E80032002AF7D1BFF3DD
:105850005B8F0B4800F082FA0020D3E754E8003F4A
:1058600023F0040344E80032002AF0D0F6E71220C7
:10587000C8E700BF101B00206533002085330020DF
:105880007C02002070B5067E044676B9C3681D8888
:1058900042F22602954245D00FD842F201029542CB
:1058A0004FD042F225039D4213D02A4BD3F85431F6
:1058B00020465B69BDE87040184742F25E039D4296
:1058C000F3D103210C3022F0F2F8E06890F8401098
:1058D0002EE003210C3022F0EAF8204617F0C0FF3A
:1058E000BFF35B8F1C4B1A68BFF35B8F920707D522
:1058F0000C26314642F225001FF0ACFE002070BDA0
:10590000BFF35B8F53E8002F42F0010143E8001022
:105910000028F7D1BFF35B8FD307E9D40F4800F01D
:105920001DFAE6E703210C3022F0C1F8E0683146A9
:10593000FFF75CFF0646204617F092FF31462846E7
:10594000DAE7DA7802F07F02DA701A7922F00102DF
:105950001A71AAE700000020101B00207C02002022
:10596000F8B500AF6D4688B06A461F4B53611F4EB5
:105970001F4C9461032342F8103F1E484FF4C65158
:105980001FF0AAFEF2791C48AD46C2EBC2023146B6
:10599000FEF7A8FA70B188B06A46184BD061C2E928
:1059A0000534042342F8103F12484FF401511FF010
:1059B00093FEAD46F279124912481201FEF792FAAF
:1059C00078B16D4688B06A460F4BD061C2E90534A4
:1059D000042342F8103F07484FF401511FF07CFEAA
:1059E000AD46BD46F8BD00BF79C1030000000020F0
:1059F0007AC30300F095030087C103008DC1030043
:105A000058010020ACC10300B3C103002DE9F047E9
:105A1000594C82B0BFF35B8F98462368BFF35B8F0E
:105A20001646DA0700AF054637D590B96C4688B000
:105A30006A46524B5361524B9361032342F8103F25
:105A400050484FF4C2511FF047FEA5466FF00100C9
:105A500024E0391D1EF0AEFA4B4982460246284624
:105A60001FF045FD002840D1BFF35B8F2368BFF3D3
:105A70005B8FC3F3C0051B0714D56C4688B06A461C
:105A8000424B53613E4B9361032342F8103F4FF466
:105A9000C4513C481FF020FEA54600200837BD46F3
:105AA000BDE8F087CC3C072221464046B047062897
:105AB00016D86E4688B06A46354B5361304B9361B9
:105AC000032342F8103F2F484FF4C2511FF004FE49
:105AD0000722B546294620461FF038FDE571DCE770
